{
  "_format": "hh-sol-artifact-1",
  "contractName": "ConcertTicketContract",
  "sourceName": "contracts/ConcertTicketContract.sol",
  "abi": [
    {
      "anonymous": false,
      "inputs": [
        {
          "indexed": false,
          "internalType": "string",
          "name": "organizer",
          "type": "string"
        },
        {
          "indexed": false,
          "internalType": "uint256",
          "name": "concertId",
          "type": "uint256"
        },
        {
          "indexed": false,
          "internalType": "string",
          "name": "name",
          "type": "string"
        },
        {
          "indexed": false,
          "internalType": "uint256",
          "name": "date",
          "type": "uint256"
        },
        {
          "indexed": false,
          "internalType": "string",
          "name": "venue",
          "type": "string"
        }
      ],
      "name": "ConcertCreated",
      "type": "event"
    },
    {
      "anonymous": false,
      "inputs": [
        {
          "indexed": false,
          "internalType": "string",
          "name": "uniqueId",
          "type": "string"
        },
        {
          "indexed": false,
          "internalType": "uint256",
          "name": "concertId",
          "type": "uint256"
        },
        {
          "indexed": false,
          "internalType": "uint256",
          "name": "zoneId",
          "type": "uint256"
        }
      ],
      "name": "TicketPurchased",
      "type": "event"
    },
    {
      "anonymous": false,
      "inputs": [
        {
          "indexed": false,
          "internalType": "string",
          "name": "from",
          "type": "string"
        },
        {
          "indexed": false,
          "internalType": "string",
          "name": "to",
          "type": "string"
        },
        {
          "indexed": false,
          "internalType": "uint256",
          "name": "concertId",
          "type": "uint256"
        },
        {
          "indexed": false,
          "internalType": "uint256",
          "name": "ticketId",
          "type": "uint256"
        }
      ],
      "name": "TicketTransferred",
      "type": "event"
    },
    {
      "inputs": [
        {
          "internalType": "uint256",
          "name": "",
          "type": "uint256"
        }
      ],
      "name": "concerts",
      "outputs": [
        {
          "internalType": "string",
          "name": "gmail",
          "type": "string"
        },
        {
          "internalType": "uint256",
          "name": "concertId",
          "type": "uint256"
        },
        {
          "internalType": "string",
          "name": "name",
          "type": "string"
        },
        {
          "internalType": "uint256",
          "name": "date",
          "type": "uint256"
        },
        {
          "internalType": "string",
          "name": "venue",
          "type": "string"
        },
        {
          "internalType": "uint256",
          "name": "totalTickets",
          "type": "uint256"
        },
        {
          "internalType": "uint256",
          "name": "ticketsSold",
          "type": "uint256"
        },
        {
          "internalType": "uint256",
          "name": "numZones",
          "type": "uint256"
        }
      ],
      "stateMutability": "view",
      "type": "function"
    },
    {
      "inputs": [
        {
          "internalType": "string",
          "name": "gmail",
          "type": "string"
        },
        {
          "internalType": "uint256",
          "name": "concertId",
          "type": "uint256"
        },
        {
          "internalType": "string",
          "name": "name",
          "type": "string"
        },
        {
          "internalType": "uint256",
          "name": "date",
          "type": "uint256"
        },
        {
          "internalType": "string",
          "name": "venue",
          "type": "string"
        },
        {
          "internalType": "uint256",
          "name": "numZones",
          "type": "uint256"
        }
      ],
      "name": "createConcert",
      "outputs": [],
      "stateMutability": "nonpayable",
      "type": "function"
    },
    {
      "inputs": [
        {
          "internalType": "uint256",
          "name": "concertId",
          "type": "uint256"
        },
        {
          "internalType": "uint256",
          "name": "zoneId",
          "type": "uint256"
        },
        {
          "internalType": "string",
          "name": "name",
          "type": "string"
        },
        {
          "internalType": "uint256",
          "name": "totalSeats",
          "type": "uint256"
        },
        {
          "internalType": "uint256",
          "name": "ticketPrice",
          "type": "uint256"
        }
      ],
      "name": "createZone",
      "outputs": [],
      "stateMutability": "nonpayable",
      "type": "function"
    },
    {
      "inputs": [
        {
          "internalType": "uint256",
          "name": "concertId",
          "type": "uint256"
        }
      ],
      "name": "getConcertDetails",
      "outputs": [
        {
          "internalType": "string",
          "name": "name",
          "type": "string"
        },
        {
          "internalType": "uint256",
          "name": "date",
          "type": "uint256"
        },
        {
          "internalType": "string",
          "name": "venue",
          "type": "string"
        },
        {
          "internalType": "uint256",
          "name": "totalTickets",
          "type": "uint256"
        },
        {
          "internalType": "uint256",
          "name": "ticketsSold",
          "type": "uint256"
        }
      ],
      "stateMutability": "view",
      "type": "function"
    },
    {
      "inputs": [
        {
          "internalType": "uint256",
          "name": "concertId",
          "type": "uint256"
        },
        {
          "internalType": "uint256",
          "name": "zoneId",
          "type": "uint256"
        }
      ],
      "name": "getZoneDetails",
      "outputs": [
        {
          "internalType": "string",
          "name": "name",
          "type": "string"
        },
        {
          "internalType": "uint256",
          "name": "totalSeats",
          "type": "uint256"
        },
        {
          "internalType": "uint256",
          "name": "seatsSold",
          "type": "uint256"
        }
      ],
      "stateMutability": "view",
      "type": "function"
    },
    {
      "inputs": [
        {
          "internalType": "string",
          "name": "uniqueId",
          "type": "string"
        },
        {
          "internalType": "uint256",
          "name": "concertId",
          "type": "uint256"
        },
        {
          "internalType": "uint256",
          "name": "zoneId",
          "type": "uint256"
        }
      ],
      "name": "purchaseTicket",
      "outputs": [],
      "stateMutability": "payable",
      "type": "function"
    },
    {
      "inputs": [
        {
          "internalType": "string",
          "name": "uniqueId",
          "type": "string"
        },
        {
          "internalType": "uint256",
          "name": "concertId",
          "type": "uint256"
        },
        {
          "internalType": "uint256",
          "name": "zoneId",
          "type": "uint256"
        },
        {
          "internalType": "string",
          "name": "to",
          "type": "string"
        },
        {
          "internalType": "uint256",
          "name": "ticketId",
          "type": "uint256"
        }
      ],
      "name": "transferTicket",
      "outputs": [],
      "stateMutability": "nonpayable",
      "type": "function"
    },
    {
      "inputs": [
        {
          "internalType": "string",
          "name": "",
          "type": "string"
        },
        {
          "internalType": "uint256",
          "name": "",
          "type": "uint256"
        },
        {
          "internalType": "uint256",
          "name": "",
          "type": "uint256"
        }
      ],
      "name": "userTickets",
      "outputs": [
        {
          "internalType": "uint256",
          "name": "",
          "type": "uint256"
        }
      ],
      "stateMutability": "view",
      "type": "function"
    }
  ],
  "bytecode": "0x608060405234801561001057600080fd5b5061101c806100206000396000f3fe60806040526004361061007b5760003560e01c8063c1e5dfb21161004e578063c1e5dfb21461016c578063ca16e4071461019b578063dc3a73e3146101ae578063ec53d3f8146101ce57600080fd5b80634942553a1461008057806390d515ac146100ba578063ba29bd5a146100dc578063beafe50c14610138575b600080fd5b34801561008c57600080fd5b506100a061009b366004610a01565b6101ee565b6040516100b1959493929190610a6a565b60405180910390f35b3480156100c657600080fd5b506100da6100d5366004610b4d565b610350565b005b3480156100e857600080fd5b5061012a6100f7366004610bcc565b82516020818501810180516001825292820195820195909520919094528352600091825260408083209093528152205481565b6040519081526020016100b1565b34801561014457600080fd5b50610158610153366004610a01565b61048c565b6040516100b1989796959493929190610c1a565b34801561017857600080fd5b5061018c610187366004610c83565b610664565b6040516100b193929190610ca5565b6100da6101a9366004610bcc565b610731565b3480156101ba57600080fd5b506100da6101c9366004610cca565b61086b565b3480156101da57600080fd5b506100da6101e9366004610d2c565b6108f4565b60606000606060008060008060008881526020019081526020016000209050806002018160030154826004018360050154846006015484805461023090610dd0565b80601f016020809104026020016040519081016040528092919081815260200182805461025c90610dd0565b80156102a95780601f1061027e576101008083540402835291602001916102a9565b820191906000526020600020905b81548152906001019060200180831161028c57829003601f168201915b505050505094508280546102bc90610dd0565b80601f01602080910402602001604051908101604052809291908181526020018280546102e890610dd0565b80156103355780601f1061030a57610100808354040283529160200191610335565b820191906000526020600020905b81548152906001019060200180831161031857829003601f168201915b50505050509250955095509550955095505091939590929450565b806001866040516103619190610e0a565b90815260408051602092819003830190206000888152908352818120878252909252902054146103d85760405162461bcd60e51b815260206004820152601960248201527f596f7520646f6e2774206f776e2074686973207469636b65740000000000000060448201526064015b60405180910390fd5b60006001866040516103ea9190610e0a565b908152604080519182900360209081018320600089815290825282812088825290915220919091558190600190610422908590610e0a565b908152604080519182900360209081018320600089815290825282812088825290915220919091557f4a2f3fd011f9d7a88199a268f0466672a7c2da20bd5577a6bd5f75d748f997db9061047d908790859088908890610e26565b60405180910390a15050505050565b6000602081905290815260409020805481906104a790610dd0565b80601f01602080910402602001604051908101604052809291908181526020018280546104d390610dd0565b80156105205780601f106104f557610100808354040283529160200191610520565b820191906000526020600020905b81548152906001019060200180831161050357829003601f168201915b50505050509080600101549080600201805461053b90610dd0565b80601f016020809104026020016040519081016040528092919081815260200182805461056790610dd0565b80156105b45780601f10610589576101008083540402835291602001916105b4565b820191906000526020600020905b81548152906001019060200180831161059757829003601f168201915b5050505050908060030154908060040180546105cf90610dd0565b80601f01602080910402602001604051908101604052809291908181526020018280546105fb90610dd0565b80156106485780601f1061061d57610100808354040283529160200191610648565b820191906000526020600020905b81548152906001019060200180831161062b57829003601f168201915b5050505050908060050154908060060154908060070154905088565b6000828152602081815260408083208484526008019091528120600281015460038201546001830180546060959485949093909183906106a390610dd0565b80601f01602080910402602001604051908101604052809291908181526020018280546106cf90610dd0565b801561071c5780601f106106f15761010080835404028352916020019161071c565b820191906000526020600020905b8154815290600101906020018083116106ff57829003601f168201915b50505050509250935093509350509250925092565b6000828152602081815260408083208484526008810190925290912060028101546003820154106107975760405162461bcd60e51b815260206004820152601060248201526f169bdb99481a5cc81cdbdb19081bdd5d60821b60448201526064016103cf565b6006820180549060006107a983610e5f565b90915550506003810180549060006107c083610e5f565b90915550506003810154600081815260058301602052604090819020805460ff1916600190811790915590518291906107fa908990610e0a565b9081526040805160209281900383019020600089815290835281812088825290925290205561082834610998565b7f43e179ca65df2b8c16039cd1303205f59bf021fcff622c424a593f631e0a5b5586868360405161085b93929190610ca5565b60405180910390a1505050505050565b6000858152602081905260409020600781015485106108be5760405162461bcd60e51b815260206004820152600f60248201526e125b9d985b1a59081e9bdb99481251608a1b60448201526064016103cf565b60008581526008820160205260409020858155600181016108df8682610ed5565b50600281019390935550600490910155505050565b60008581526020819052604090208061090d8882610ed5565b5060018101869055600281016109238682610ed5565b5060038101849055600481016109398482610ed5565b506000600582018190556006820155600781018290556040517f6d46472e9cf5d1b849e39350cffb244b4fd30859960a53ce019d3427383121b6906109879089908990899089908990610f95565b60405180910390a150505050505050565b6109dd816040516024016109ae91815260200190565b60408051601f198184030181529190526020810180516001600160e01b031663f82c50f160e01b1790526109e0565b50565b80516a636f6e736f6c652e6c6f67602083016000808483855afa5050505050565b600060208284031215610a1357600080fd5b5035919050565b60005b83811015610a35578181015183820152602001610a1d565b50506000910152565b60008151808452610a56816020860160208601610a1a565b601f01601f19169290920160200192915050565b60a081526000610a7d60a0830188610a3e565b8660208401528281036040840152610a958187610a3e565b60608401959095525050608001529392505050565b634e487b7160e01b600052604160045260246000fd5b600082601f830112610ad157600080fd5b813567ffffffffffffffff80821115610aec57610aec610aaa565b604051601f8301601f19908116603f01168101908282118183101715610b1457610b14610aaa565b81604052838152866020858801011115610b2d57600080fd5b836020870160208301376000602085830101528094505050505092915050565b600080600080600060a08688031215610b6557600080fd5b853567ffffffffffffffff80821115610b7d57600080fd5b610b8989838a01610ac0565b965060208801359550604088013594506060880135915080821115610bad57600080fd5b50610bba88828901610ac0565b95989497509295608001359392505050565b600080600060608486031215610be157600080fd5b833567ffffffffffffffff811115610bf857600080fd5b610c0486828701610ac0565b9660208601359650604090950135949350505050565b6000610100808352610c2e8184018c610a3e565b90508960208401528281036040840152610c48818a610a3e565b90508760608401528281036080840152610c628188610a3e565b60a0840196909652505060c081019290925260e09091015295945050505050565b60008060408385031215610c9657600080fd5b50508035926020909101359150565b606081526000610cb86060830186610a3e565b60208301949094525060400152919050565b600080600080600060a08688031215610ce257600080fd5b8535945060208601359350604086013567ffffffffffffffff811115610d0757600080fd5b610d1388828901610ac0565b9598949750949560608101359550608001359392505050565b60008060008060008060c08789031215610d4557600080fd5b863567ffffffffffffffff80821115610d5d57600080fd5b610d698a838b01610ac0565b9750602089013596506040890135915080821115610d8657600080fd5b610d928a838b01610ac0565b9550606089013594506080890135915080821115610daf57600080fd5b50610dbc89828a01610ac0565b92505060a087013590509295509295509295565b600181811c90821680610de457607f821691505b602082108103610e0457634e487b7160e01b600052602260045260246000fd5b50919050565b60008251610e1c818460208701610a1a565b9190910192915050565b608081526000610e396080830187610a3e565b8281036020840152610e4b8187610a3e565b604084019590955250506060015292915050565b600060018201610e7f57634e487b7160e01b600052601160045260246000fd5b5060010190565b601f821115610ed057600081815260208120601f850160051c81016020861015610ead5750805b601f850160051c820191505b81811015610ecc57828155600101610eb9565b5050505b505050565b815167ffffffffffffffff811115610eef57610eef610aaa565b610f0381610efd8454610dd0565b84610e86565b602080601f831160018114610f385760008415610f205750858301515b600019600386901b1c1916600185901b178555610ecc565b600085815260208120601f198616915b82811015610f6757888601518255948401946001909101908401610f48565b5085821015610f855787850151600019600388901b60f8161c191681555b5050505050600190811b01905550565b60a081526000610fa860a0830188610a3e565b8660208401528281036040840152610fc08187610a3e565b90508460608401528281036080840152610fda8185610a3e565b9897505050505050505056fea2646970667358221220547d0bcc87e04077dd725e05d585deca0e11fd7c995d8c9271add81b8125ca7764736f6c63430008110033",
  "linkReferences": {},
  "deployedLinkReferences": {}
}